:020000020000FC
:0200000021C01D
:040010000C948900C3
:040034000C943002F6
:100040000C94CA02F8940FEF0DBF08E00EBF00E851
:100050000093610004E00093610000E00093C100A0
:100060000FEF04B900E105B90FE108B900E207B9E3
:100070000FEF0AB900E00BB901E000936E0001E058
:1000800000936F0002E0009368000FE100936C00A2
:1000900000E004BD02E005BD01E005BB00E0009307
:1000A000800003E00093810001E005BB02EC0093B7
:1000B000850007EF009384003F065B4F666D7D0768
:1000C0007F6F00E0009301010093000100930201A3
:1000D00000930301009304010093050100930601BE
:1000E00001E000930701002744275527662777275B
:1000F00088279927AA27112722273327222739E083
:1001000045E053E062E092E0A1E071E083E07894A2
:10011000FFCF0F931F93BF93CF930FB70F933099D8
:1001200015C000910601013029F4459800E00093C4
:1001300006018FC1009101010395053021F40027CC
:100140000093010186C10093010183C10091010167
:10015000003019F42C9A2D987CC1023019F42D9A94
:100160002C9877C1013021F0033009F453C0CBC083
:10017000319901C009C0329901C01BC0339901C037
:100180002DC0349966C138C0603029F4503019F45C
:1001900062E053E05EC1552351F459E06A95623044
:1001A00009F057C1593009F054C153E052C15A9572
:1001B00050C1623029F4533019F46627552749C1DC
:1001C00053955A3011F455276395623009F041C1B7
:1001D000543009F03EC1662755273BC1403029F411
:1001E000303019F445E039E034C1332319F439E0F3
:1001F0004A952FC13A952DC1453029F4393019F46B
:100200004427332726C133953A3009F022C13327DA
:1002100043951FC1319901C009C0329901C015C071
:10022000339901C021C0349914C131C0803031F4F8
:10023000713021F43FD08B2F7C2F0BC1772319F421
:1002400079E08A9506C17A9504C134D08B1729F4D8
:100250007C1719F4882771E0FCC073957A3009F097
:10026000F8C077278395F5C0A03029F4913019F4B0
:10027000A1E092E00BC0992319F499E0AA9501C07E
:100280009A95A03019F4903009F491E02CC0A13077
:1002900029F4923019F4AA2791E00BC093959A3073
:1002A00011F49927A395A13021F4933011F4AA27D2
:1002B00091E0ECCFA03049F4923061F0943069F0D5
:1002C000963059F0993049F00BC0913031F09230AE
:1002D00039F006C0B2E0C8E00895B3E0C0E0089588
:1002E000B3E0C1E00895E6DF8B1708F4B2C011F067
:1002F0000C9480017C1708F4ACC011F40C948001BC
:100300008B2F7C2FA6C0319901C009C0329901C042
:1003100033C0339901C05EC034999BC07BC000914B
:100320000401003059F400910501003039F402E075
:100330000093040103E0009305018BC000910501C7
:100340000023B1F409E000930501009104010A952E
:100350000093040100910401023009F07AC0009179
:100360000501093009F075C003E00093050171C073
:100370000A95009305016DC000910401023051F40B
:1003800000910501033031F400E000930401009373
:1003900005015FC0009105010395009305010A3036
:1003A00009F008C000E000930501009104010395E5
:1003B0000093040100910401023009F04AC0009149
:1003C0000501043009F045C000E0009304010093EA
:1003D00005013FC000910201003059F40091030172
:1003E000003039F405E00093020109E000930301B5
:1003F00030C000910301002349F409E00093030198
:10040000009102010A950093020123C00A9500930E
:1004100003011FC000910201053051F40091030156
:10042000093031F400E0009302010093030111C090
:10043000009103010395009303010A3009F009C0FC
:1004400000E0009303010091020103950093020173
:1004500000C00F910FBFCF91BF911F910F911895C1
:100460000F93BF93CF930FB70F9300910601013005
:1004700009F4359A00910101013009F41C9A033006
:1004800009F41D9A043011F41C9A1D9AB0910701C9
:10049000C1E0BC27B093070123952C3309F06EC04F
:1004A0002227339500910201041779F4009103018A
:1004B000031759F400910401061739F4009105015E
:1004C000051719F401E0009306013A3009F056C00F
:1004D00033274395463009F051C044275395623085
:1004E00009F048C0543009F049C055276627739574
:1004F000A030A1F4913041F19230B1F0933021F16C
:100500009430D1F0953001F19630B1F09730E1F0B0
:100510009830D1F0993081F09927A3959030A1F0CF
:10052000913051F09230C1F08230F9F4793031F5E8
:1005300088277727939522C08330B9F47130F1F47E
:100540008827772793951AC0833079F47230B1F4F5
:1005500088277727939512C0833039F4723071F46D
:10056000882771E0AA2791E009C07A3039F477270B
:10057000839504C05A3011F45527639502EC00931B
:10058000850007EF009384000F910FBFCF91BF91BB
:100590000F9118950F931F93FF93EF930FB70F933E
:1005A000289829982A982B9800E00BB9009101010E
:1005B000003041F0013031F00230C9F00330B9F0C1
:1005C000043051F100910001003029F0013031F088
:1005D000023039F009C0162F289A37C0152F299AF2
:1005E00034C0142F2A9A31C0132F2B9A2EC0009199
:1005F0000001003029F0013031F0023039F009C03B
:10060000182F289A22C0172F299A1FC01A2F2A9A0A
:100610001CC0192F2B9A19C000910001003029F03D
:10062000013039F0023049F00CC010910401289AD1
:100630000CC010910501299A08C0109102012A9A54
:1006400004C0109103012B9A00C0F0E0E8EBE10F29
:10065000F11D149100910001013019F0023009F0F0
:1006600006C0B0910701B13011F4106801C01F77C6
:100670001BB903950370009300010F910FBFEF9119
:08068000FF911F910F911895E5
:00000001FF
